:100000000C9446000C9465000C9465000C946500FB
:100010000C9465000C9465000C9465000C946500CC
:100020000C9465000C9465000C9465000C946500BC
:100030000C9465000C9452010C9465000C946500BE
:100040000C9465000C9465000C9465000C9465009C
:100050000C9465000C9465000C9465000C9465008C
:100060000C9465000C9465000C9465000C9465007C
:100070000C9465000C9465000C9465000C9465006C
:100080000C9465000C9465000C94650011241FBE4F
:10009000CFEFD0E4DEBFCDBF12E3A0E0B1E0E8EAED
:1000A000FEE300E00BBF02C007900D92AA3CB1072F
:1000B000D9F723E3AAECB2E301C01D92AB36B20735
:1000C000E1F70E9415020C94521F0C940000CF938C
:1000D000DF9300D0CDB7DEB79A83898385EC90E0BB
:1000E00029813A81232F3327FC01208384EC90E07F
:1000F0002981FC01208381EC90E028E1FC01208330
:1001000082EC90E02EE0FC01208300000F900F9025
:10011000DF91CF910895CF93DF931F92CDB7DEB7D4
:100120008983000080EC90E0FC018081882F90E0C2
:1001300080729927892BB1F386EC90E02981FC012C
:10014000208300000F90DF91CF910895CF93DF932C
:10015000CDB7DEB7000080EC90E0FC018081882FF5
:1001600090E080729927892BB1F386EC90E0FC0136
:100170008081DF91CF910895CF93DF931F92CDB708
:10018000DEB705C086EC90E0FC018081898380ECBD
:1001900090E0FC0180818823ACF300000F90DF9198
:1001A000CF910895CF93DF9300D000D0CDB7DEB7C5
:1001B00069837A838B839C8389819A81AB81BC819B
:1001C0008093000190930101A0930201B093030179
:1001D0008091000190910101A0910201B091030171
:1001E0008093CB329093CC32A093CD32B093CE3269
:1001F00000000F900F900F900F90DF91CF91089516
:10020000CF93DF93CDB7DEB781E890E02BE0FC0120
:10021000208388E890E02DE730E0FC0131832083E3
:100220008FE690E022E0FC01208384E890E0FC016E
:10023000118210828091000190910101A091020130
:10024000B09103018093CB329093CC32A093CD3206
:10025000B093CE328FE590E02FE530E0F9012081B8
:100260002068FC0120830000DF91CF910895CF9397
:10027000DF93CDB7DEB781E890E0FC01108200008B
:10028000DF91CF910895CF93DF93CDB7DEB7809103
:10029000CA328F5F8093CA320E94DD010000DF9175
:1002A000CF9108951F920F9200905F000F9211243A
:1002B00000905B000F922F933F934F935F936F9348
:1002C0007F938F939F93AF93BF93EF93FF93CF93BE
:1002D000DF93CDB7DEB78091CB329091CC32A09135
:1002E000CD32B091CE320197A109B1098093CB32C2
:1002F0009093CC32A093CD32B093CE328091CB325A
:100300009091CC32A091CD32B091CE32892B8A2BF4
:100310008B2B91F40E944301809100019091010187
:10032000A0910201B09103018093CB329093CC3223
:10033000A093CD32B093CE320000DF91CF91FF91E8
:10034000EF91BF91AF919F918F917F916F915F914D
:100350004F913F912F910F9000925B000F90009270
:100360005F000F901F901895CF93DF9300D01F92DE
:10037000CDB7DEB789837B836A8389818A3031F484
:100380008A819B81BC018DE00E94B40180EC90E0E9
:10039000FC018081882F90E080729927892BB1F32E
:1003A00086EC90E02981FC01208380E090E00F90B2
:1003B0000F900F90DF91CF910895CF93DF931F920D
:1003C000CDB7DEB7198224C08981882F90E0880FCD
:1003D000991F88549D4CFC01208131818981882F8F
:1003E00090E0880F991F88549D4CFC018081918179
:1003F000FC0185819681A781B0850A96A11DB11D5A
:10040000F90185839683A783B08789818F5F89836C
:100410008981282F30E085E090E028173907A0F285
:1004200000000F90DF91CF9108950F931F93CF930A
:10043000DF931F92CDB7DEB781E290E02DEFFC0194
:10044000208382E290E022E0FC01208382E290E0BF
:1004500022E230E0F90120812460FC01208382E265
:1004600090E022E230E0F90120812E7FFC01208320
:1004700087E290E0FC01108288E290E02FEFFC011F
:10048000208384E290E02FEFFC01208385E290E05E
:10049000FC0110828FEF80932F3386E490E0A0E080
:1004A000B0E08093303390933133A0933233B093E4
:1004B00033338091303390913133A0913233B09106
:1004C00033338093343390933533A0933633B093E2
:1004D000373389E893E090933933809338338FEF43
:1004E00080933A338EE190E0A0E0B0E080933B331C
:1004F00090933C33A0933D33B0933E3380913B3394
:1005000090913C33A0913D33B0913E3380933F3383
:1005100090934033A0934133B09342338AE19EE0FD
:1005200090934433809343338FEF8093453382E33A
:1005300090E0A0E0B0E08093463390934733A093DF
:100540004833B09349338091463390914733A0911B
:100550004833B091493380934A3390934B33A093FF
:100560004C33B0934D3380EE93E190934F338093AF
:100570004E338FEF8093503382E390E0A0E0B0E001
:100580008093513390935233A0935333B0935433A9
:100590008091513390915233A0915333B0915433A1
:1005A0008093553390935633A0935733B093583379
:1005B0008BE494E190935A33809359338FEF809377
:1005C0005B3384E690E0A0E0B0E080935C339093EE
:1005D0005D33A0935E33B0935F3380915C33909131
:1005E0005D33A0915E33B0915F338093603390931D
:1005F0006133A0936233B09363338FEA96E09093B4
:1006000065338093643383E390E00E9467006AE07F
:1006100070E080E090E00E94D2000E940001809192
:10062000CA32882309F46FC019825FC08981882F7C
:1006300090E0880F991F88549D4CFC018081918126
:10064000FC0125813681478150858981882F90E082
:10065000880F991F88549D4CFC0180819181FC0179
:1006600081819281A381B481281739074A075B07EA
:10067000C8F18981882F90E0880F991F88549D4C7C
:10068000FC01008111818981882F90E0880F991FDA
:1006900088549D4CFC0180819181FC01218532852B
:1006A0008981882F90E0880F991F88549D4CFC0108
:1006B00080819181FC018081082E000C990BF90149
:1006C0000995F80180838981882F90E0880F991F10
:1006D00088549D4CFC0180819181FC011582168219
:1006E0001782108689818F5F89838981282F30E066
:1006F00085E090E02817390708F498CF8091CA3236
:1007000081508093CA3200008091CA328823E1F37D
:1007100086CFCF93DF9300D0CDB7DEB79A8389839E
:1007200089819A81009721F0019709F453C075C01F
:1007300086E290E0FC018081882F90E0817099270B
:10074000892BF1F585E290E025E230E0F901208186
:100750002F7BFC01208386E990E09093B232809356
:10076000B13286E990E09093B4328093B33281E065
:1007700090E09A83898310926A3388E70E948B0005
:100780008091B1329091B232892F99270E948B00CB
:100790008091B1329091B2320E948B0089E70E9421
:1007A0008B008091B3329091B432892F99270E94A7
:1007B0008B008091B3329091B4320E948B0031C093
:1007C00085E290E025E230E0F90120812064FC011F
:1007D000208327C086E290E0FC018081882F90E092
:1007E00081709927892B71F01A82198286E990E02D
:1007F0009093B2328093B13286E990E09093B43214
:100800008093B3328091D132882351F08FEF082E3C
:10081000000C990B9A83898303C01A82198201C044
:10082000000089819A81009709F48FC2019709F02D
:100830008FC285E290E025E230E0F9012081206856
:10084000FC0120830E941A158091CF329091D03202
:1008500080789927892B09F498C08091B3329091C0
:10086000B432863D914009F484C08091B1329091B8
:10087000B2329C01ADECBCEC0E94E11BAC01529584
:1008800042954F7045275F7045278091B332909114
:10089000B4320E969C01ADECBCEC0E94E11B9C01B5
:1008A000329522952F7023273F702327CA01880F86
:1008B000991F840F951F880F991F880F991F880F04
:1008C000991F820F931F8F5C9E4CFC01808188359D
:1008D00009F44FC08091B1329091B23209969C01D7
:1008E000ADECBCEC0E94E11BAC01529542954F70FF
:1008F00045275F7045278091B3329091B4320E96B0
:100900009C01ADECBCEC0E94E11B9C013295229550
:100910002F7023273F702327CA01880F991F840F48
:10092000951F880F991F880F991F880F991F820F95
:10093000931F8F5C9E4CFC0180818835D1F089E744
:100940000E948B008091B3329091B43205969093BF
:10095000B4328093B3328091B3329091B432892F04
:1009600099270E948B008091B3329091B4320E94FB
:100970008B000E94011B85E290E025E230E0F90146
:1009800020812160FC01208309C085E290E025E2FE
:1009900030E0F90120812E7FFC0120838091CF324D
:1009A0009091D03280749927892B09F497C0809157
:1009B000B3329091B432892B09F484C08091B13262
:1009C0009091B2329C01ADECBCEC0E94E11BAC01F9
:1009D000529542954F7045275F7045278091B332FD
:1009E0009091B43205979C01ADECBCEC0E94E11BE8
:1009F0009C01329522952F7023273F702327CA012F
:100A0000880F991F840F951F880F991F880F991FB2
:100A1000880F991F820F931F8F5C9E4CFC01808171
:100A2000883509F44FC08091B1329091B232099665
:100A30009C01ADECBCEC0E94E11BAC0152954295CF
:100A40004F7045275F7045278091B3329091B43243
:100A500005979C01ADECBCEC0E94E11B9C0132951A
:100A600022952F7023273F702327CA01880F991FD3
:100A7000840F951F880F991F880F991F880F991F42
:100A8000820F931F8F5C9E4CFC0180818835D1F0D2
:100A900089E70E948B008091B3329091B432059720
:100AA0009093B4328093B3328091B3329091B43248
:100AB000892F99270E948B008091B3329091B43294
:100AC0000E948B000E94011B85E290E025E230E04D
:100AD000F90120812260FC01208309C085E290E0B9
:100AE00025E230E0F90120812D7FFC0120838091F7
:100AF000CF329091D03280719927892B09F48DC023
:100B00008091B1329091B232892B09F484C08091E6
:100B1000B1329091B23205979C01ADECBCEC0E94D1
:100B2000E11BAC01529542954F7045275F704527F8
:100B30008091B3329091B4329C01ADECBCEC0E9438
:100B4000E11B9C01329522952F7023273F702327AC
:100B5000CA01880F991F840F951F880F991F880F4E
:100B6000991F880F991F820F931F8F5C9E4CFC0169
:100B70008081883509F44FC08091B1329091B232B2
:100B800005979C01ADECBCEC0E94E11BAC015295B9
:100B900042954F7045275F7045278091B332909101
:100BA000B43209969C01ADECBCEC0E94E11B9C01A7
:100BB000329522952F7023273F702327CA01880F73
:100BC000991F840F951F880F991F880F991F880FF1
:100BD000991F820F931F8F5C9E4CFC01808188358A
:100BE000D1F088E70E948B008091B1329091B232AF
:100BF00005979093B2328093B1328091B132909147
:100C0000B232892F99270E948B008091B132909146
:100C1000B2320E948B000E94011B8091CF329091D2
:100C2000D03280729927892B09F491C08091B1321A
:100C30009091B2328633914009F484C08091B132F0
:100C40009091B2320E969C01ADECBCEC0E94E11B7F
:100C5000AC01529542954F7045275F7045278091B2
:100C6000B3329091B4329C01ADECBCEC0E94E11B1C
:100C70009C01329522952F7023273F702327CA01AC
:100C8000880F991F840F951F880F991F880F991F30
:100C9000880F991F820F931F8F5C9E4CFC018081EF
:100CA000883509F44FC08091B1329091B2320E96DE
:100CB0009C01ADECBCEC0E94E11BAC01529542954D
:100CC0004F7045275F7045278091B3329091B432C1
:100CD00009969C01ADECBCEC0E94E11B9C01329595
:100CE00022952F7023273F702327CA01880F991F51
:100CF000840F951F880F991F880F991F880F991FC0
:100D0000820F931F8F5C9E4CFC0180818835D1F04F
:100D100088E70E948B008091B1329091B2320596A3
:100D20009093B2328093B1328091B1329091B232CD
:100D3000892F99270E948B008091B1329091B23215
:100D40000E948B000E94011B02C0000001C0000035
:100D500089819A810F900F90DF91CF910895CF9361
:100D6000DF93CDB7DEB72F970FB6F894DEBF0FBE77
:100D7000CDBF9F878E878091B53286958F5F8C839C
:100D80008E859F8581309105E1F08230910501F1DA
:100D9000892B09F047C01092663386E290E0FC018F
:100DA0008081882F90E081709927892B09F05FC09E
:100DB00081E090E09F878E878091B6328093B53234
:100DC00056C01092663382E090E09F878E8752C0B3
:100DD0008091B5328823D9F481E090E09F878E8797
:100DE0008091B632873030F48091B6328F5F809335
:100DF000B63209C08091B7328A3028F48091B73278
:100E00008F5F8093B7328091B6328093B5328091F4
:100E1000D132882371F18FEF082E000C990B9F8738
:100E20008E8727C04EE050E060E070E085E093E3FD
:100E30000E94F71E4EE050E060E070E083E193E333
:100E40000E94F71E47E050E060E070E081E293E32B
:100E50000E94F71E47E050E060E070E088E293E314
:100E60000E94F71E1F861E861092D13203C000001A
:100E700001C000008E859F858130910541F0823050
:100E8000910509F417C1892B09F4C8C6C8C61A828E
:100E9000198205C10E94E81E23E030E0B9010E94DA
:100EA000CD1B8D838D818823C1F50E94E81E23E030
:100EB00030E0B9010E94CD1B880F991F9C01220FC1
:100EC000331F220F331F820F931F88549E4F9C01A4
:100ED00089819A81880F991F8D5E9C4CFC0131831A
:100EE00020830E94E81E23E030E0B9010E94CD1B60
:100EF000880F991F9C01220F331F220F331F820F6F
:100F0000931F88969C0189819A81880F991F8B5F16
:100F10009C4CFC013183208378C08D818130D1F5D8
:100F20000E94E81E23E030E0B9010E94CD1B880F2B
:100F3000991F9C01220F331F220F331F820F931F13
:100F40009C0189819A81880F991F8D5E9C4CFC01C0
:100F5000318320830E94E81E87709078992324F4BF
:100F60000197886F9F6F0196880F991F9C01220F30
:100F7000331F220F331F820F931F8E529F4F9C01EE
:100F800089819A81880F991F8B5F9C4CFC0131836A
:100F900020833BC00E94E81E23E030E0B9010E949C
:100FA000CD1B880F991F9C01220F331F220F331F67
:100FB000820F931F88549E4F9C0189819A81880FCC
:100FC000991F8D5E9C4CFC01318320830E94E81E9A
:100FD00087709078992324F40197886F9F6F01960A
:100FE000880F991F9C01220F331F220F331F820F7E
:100FF000931F88589F4F9C0189819A81880F991F60
:101000008B5F9C4CFC01318320832091B732898116
:101010009A818F5D9C4CFC01208389819A81885D37
:101020009C4C22E0FC01208385E60E948B00898194
:101030000E948B0089819A81880F991F8B5F9C4C3D
:10104000FC0180819181892F99270E948B008981E1
:101050009A81880F991F8B5F9C4CFC018081918144
:101060000E948B0089819A81880F991F8D5E9C4C0C
:10107000FC0180819181892F99270E948B008981B1
:101080009A81880F991F8D5E9C4CFC018081918113
:101090000E948B0089819A8101969A83898380912D
:1010A000B632282F30E089819A818217930708F49D
:1010B000F1CEB5C580916633882F90E001962C81E2
:1010C000222F30E0B9010E94CD1B809366338091BE
:1010D00066338B839CC58B81882F90E08F5D9C4C01
:1010E000FC018081882309F049C08B81882F90E022
:1010F000880F991F8B5F9C4CFC0180819181892B0B
:10110000E9F18B81882F90E0880F991F8D5E9C4CB0
:10111000FC0180819181892B89F18091B5328150C8
:101120008093B53285E60E948B008B8180630E949C
:101130008B008B81482F50E08B81882F90E09C01A1
:10114000220F331F2D5E3C4CF90111821082880F53
:10115000991F8D5E9C4CFC0120813181CA01880F52
:10116000991F8B5F9C4CFC01318320838B81882FDE
:1011700090E0885D9C4C22E0FC0120838B81882FCD
:1011800090E08F5D9C4CFC018081882309F49FC115
:101190008B81882F90E0885D9C4CFC01808182309F
:1011A00009F095C18B81882F90E0880F991F8B5F84
:1011B0009C4CFC0180819181CC01A0E0B0E0BC019D
:1011C000CD010E941E1DDC01CB0120E030E040EA91
:1011D00051E4BC01CD010E94761CDC01CB01BC01B5
:1011E000CD010E94EF1CDC01CB018E838B81882F07
:1011F00090E0880F991F8D5E9C4CFC01808191814D
:10120000CC01A0E0B0E0BC01CD010E941E1DDC01BC
:10121000CB0120E030E040EA51E4BC01CD010E9466
:10122000761CDC01CB01BC01CD010E94EF1CDC016E
:10123000CB018F838E81E82FF0E08F81282F30E063
:1012400080916933882F90E0A901440F551F429582
:101250005295507F5427407F542760E073E0E69F0B
:101260009001E79F300DF69F300D1124240F351F9C
:10127000820F931F8B5D9E4FFC01808188878E813A
:10128000E82FF0E08F81282F30E080916933882F9C
:1012900090E0A901440F551F42955295507F542765
:1012A000407F542760E073E0E69F9001E79F300D98
:1012B000F69F300D1124240F351F820F931F8C5C75
:1012C0009E4FFC01808189878885882309F4F5C0B9
:1012D0008985882309F4F1C098858E819817C0F517
:1012E0008B81882F90E02B81222F30E0220F331F3B
:1012F0002B5F3C4CF901208131812A503109880F44
:10130000991F8B5F9C4CFC013183208385E60E94F2
:101310008B008B8180610E948B008B81882F90E0F5
:10132000880F991F8B5F9C4CFC0180819181892FD4
:1013300099270E948B008B81882F90E0880F991F3E
:101340008B5F9C4CFC01808191810E948B00BEC010
:1013500098858E818917C0F58B81882F90E02B812D
:10136000222F30E0220F331F2B5F3C4CF9012081EC
:101370003181265F3F4F880F991F8B5F9C4CFC018A
:101380003183208385E60E948B008B8180610E94DF
:101390008B008B81882F90E0880F991F8B5F9C4C6E
:1013A000FC0180819181892F99270E948B008B817C
:1013B000882F90E0880F991F8B5F9C4CFC018081E7
:1013C00091810E948B0082C099858F819817C0F50A
:1013D0008B81882F90E02B81222F30E0220F331F4A
:1013E0002D5E3C4CF901208131812A503109880F52
:1013F000991F8D5E9C4CFC013183208385E60E9401
:101400008B008B8180620E948B008B81882F90E003
:10141000880F991F8D5E9C4CFC0180819181892FE2
:1014200099270E948B008B81882F90E0880F991F4D
:101430008D5E9C4CFC01808191810E948B0046C096
:1014400099858F81891708F041C08B81882F90E0A2
:101450002B81222F30E0220F331F2D5E3C4CF901EF
:1014600020813181265F3F4F880F991F8D5E9C4CF4
:10147000FC013183208385E60E948B008B81806292
:101480000E948B008B81882F90E0880F991F8D5EC2
:101490009C4CFC0180819181892F99270E948B00AF
:1014A0008B81882F90E0880F991F8D5E9C4CFC01EA
:1014B000808191810E948B0009C08B81882F90E0F0
:1014C000885D9C4C21E0FC01208301C000008B81E1
:1014D000882F90E08F5D9C4CFC018081882309F46B
:1014E0003DC38B81882F90E0885D9C4CFC018081FE
:1014F000813009F033C38091B1329091B232CC0186
:10150000A0E0B0E0BC01CD010E941E1DDC01CB01BA
:1015100020E030E040EA51E4BC01CD010E94761C9D
:10152000DC01CB01BC01CD010E94EF1CDC01CB0131
:101530008A878091B3329091B432CC01A0E0B0E0C0
:10154000BC01CD010E941E1DDC01CB0120E030E07A
:1015500040EA51E4BC01CD010E94761CDC01CB01C4
:10156000BC01CD010E94EF1CDC01CB018B878B817C
:10157000882F90E0880F991F8B5F9C4CFC01808125
:101580009181CC01A0E0B0E0BC01CD010E941E1D04
:10159000DC01CB0120E030E040EA51E4BC01CD01A8
:1015A0000E94761CDC01CB01BC01CD010E94EF1C26
:1015B000DC01CB018C878B81882F90E0880F991FED
:1015C0008D5E9C4CFC0180819181CC01A0E0B0E05B
:1015D000BC01CD010E941E1DDC01CB0120E030E0EA
:1015E00040EA51E4BC01CD010E94761CDC01CB0134
:1015F000BC01CD010E94EF1CDC01CB018D879C85D5
:101600008A85981709F021C19D858B85981709F067
:101610001CC10E94E81E81709927892B09F093C094
:101620008B81882F90E0880F991F8B5F9C4CFC0169
:10163000208131818091B1329091B23228173907DF
:1016400009F481C08B81882F90E0880F991F8B5FF0
:101650009C4CFC01208131818091B1329091B23259
:1016600082179307C0F58B81882F90E02B81222F62
:1016700030E0220F331F2B5F3C4CF9012081318178
:101680002A503109880F991F8B5F9C4CFC013183D4
:10169000208385E60E948B008B8180610E948B00F5
:1016A0008B81882F90E0880F991F8B5F9C4CFC01E9
:1016B00080819181892F99270E948B008B81882FAF
:1016C00090E0880F991F8B5F9C4CFC018081918179
:1016D0000E948B00B9C08B81882F90E02B81222F34
:1016E00030E0220F331F2B5F3C4CF9012081318108
:1016F000265F3F4F880F991F8B5F9C4CFC01318305
:10170000208385E60E948B008B8180610E948B0084
:101710008B81882F90E0880F991F8B5F9C4CFC0178
:1017200080819181892F99270E948B008B81882F3E
:1017300090E0880F991F8B5F9C4CFC018081918108
:101740000E948B0081C08B81882F90E0880F991FA9
:101750008D5E9C4CFC01208131818091B33290914F
:10176000B43282179307C0F58B81882F90E02B81CC
:10177000222F30E0220F331F2D5E3C4CF9012081D7
:1017800031812A503109880F991F8D5E9C4CFC01D4
:101790003183208385E60E948B008B8180620E94CA
:1017A0008B008B81882F90E0880F991F8D5E9C4C59
:1017B000FC0180819181892F99270E948B008B8168
:1017C000882F90E0880F991F8D5E9C4CFC018081D2
:1017D00091810E948B00C2C18B81882F90E02B8168
:1017E000222F30E0220F331F2D5E3C4CF901208167
:1017F0003181265F3F4F880F991F8D5E9C4CFC0105
:101800003183208385E60E948B008B8180620E9459
:101810008B008B81882F90E0880F991F8D5E9C4CE8
:10182000FC0180819181892F99270E948B008B81F7
:10183000882F90E0880F991F8D5E9C4CFC01808161
:1018400091810E948B008AC189C10E94E81E81702B
:101850009927892B09F0C4C09C858A85981709F4BB
:10186000BFC09A858C85981708F05DC08C85882F3D
:1018700090E09C01215031098D85482F50E0C9012D
:10188000880F991F820F931F880F991F880F991F28
:10189000880F991F840F951F8F5C9E4CFC018081DF
:1018A000883549F48B81882F90E0885D9C4C22E03C
:1018B000FC01208353C18B81882F90E02B81222F44
:1018C00030E0220F331F2B5F3C4CF9012081318126
:1018D0002A503109880F991F8B5F9C4CFC01318382
:1018E000208385E60E948B008B8180610E948B00A3
:1018F0008B81882F90E0880F991F8B5F9C4CFC0197
:1019000080819181892F99270E948B008B81882F5C
:1019100090E0880F991F8B5F9C4CFC018081918126
:101920000E948B001BC18C85882F90E09C012F5F4B
:101930003F4F8D85482F50E0C901880F991F820FB6
:10194000931F880F991F880F991F880F991F840F65
:10195000951F8F5C9E4CFC018081883549F48B81FA
:10196000882F90E0885D9C4C22E0FC012083F6C02B
:101970008B81882F90E02B81222F30E0220F331FA4
:101980002B5F3C4CF90120813181265F3F4F880F4E
:10199000991F8B5F9C4CFC013183208385E60E945C
:1019A0008B008B8180610E948B008B81882F90E05F
:1019B000880F991F8B5F9C4CFC0180819181892F3E
:1019C00099270E948B008B81882F90E0880F991FA8
:1019D0008B5F9C4CFC01808191810E948B00BEC07A
:1019E0009B858D85981708F05DC08C85282F30E089
:1019F0008D85882F90E0AC0141505109C901880FB5
:101A0000991F820F931F880F991F880F991F880FA6
:101A1000991F840F951F8F5C9E4CFC018081883537
:101A200049F48B81882F90E0885D9C4C22E0FC017A
:101A3000208394C08B81882F90E02B81222F30E06F
:101A4000220F331F2D5E3C4CF901208131812A5039
:101A50003109880F991F8D5E9C4CFC0131832083D6
:101A600085E60E948B008B8180620E948B008B81B7
:101A7000882F90E0880F991F8D5E9C4CFC0180811F
:101A80009181892F99270E948B008B81882F90E06C
:101A9000880F991F8D5E9C4CFC01808191810E9472
:101AA0008B005CC08C85282F30E08D85882F90E0DE
:101AB000AC014F5F5F4FC901880F991F820F931FC1
:101AC000880F991F880F991F880F991F840F951FE2
:101AD0008F5C9E4CFC018081883549F48B81882F76
:101AE00090E0885D9C4C22E0FC01208337C08B8114
:101AF000882F90E02B81222F30E0220F331F2D5EA4
:101B00003C4CF90120813181265F3F4F880F991F9E
:101B10008D5E9C4CFC013183208385E60E948B0006
:101B20008B8180620E948B008B81882F90E0880FD0
:101B3000991F8D5E9C4CFC0180819181892F992792
:101B40000E948B008B81882F90E0880F991F8D5EFB
:101B50009C4CFC01808191810E948B008B81882F9D
:101B600090E08F5D9C4CFC018081882309F44BC080
:101B70008B81882F90E0880F991F8B5F9C4CFC0114
:101B8000208131818091B1329091B232059728172E
:101B90003907C8F18B81882F90E0880F991F8B5FE0
:101BA0009C4CFC01208131818091B1329091B23204
:101BB0000A962817390738F58B81882F90E0880F0F
:101BC000991F8D5E9C4CFC01208131818091B33244
:101BD0009091B432059728173907A8F08B81882F88
:101BE00090E0880F991F8D5E9C4CFC012081318113
:101BF0008091B3329091B4320A962817390718F4BD
:101C000084E60E948B009B818C81890F8B8380915D
:101C1000B6329B81981708F45ECA01C000008E8519
:101C20009F852F960FB6F894DEBF0FBECDBFDF9114
:101C3000CF910895CF93DF93CDB7DEB729970FB635
:101C4000F894DEBF0FBECDBF9987888788859985B8
:101C5000009721F0019709F43EC022C086E290E08F
:101C6000FC018081882F90E081709927892BA9F54C
:101C70001A8219820CC089819A8186509D4C25E078
:101C8000FC01208389819A8101969A8389838981C5
:101C90009A810A9780F381E090E0998788871DC038
:101CA0004AE050E060E070E08AEF92E30E94F71EA5
:101CB00044E150E060E070E082ED92E30E94F71EA4
:101CC00044E150E060E070E086EE92E30E94F71E8F
:101CD0001986188603C0000001C000008885998518
:101CE000009709F461C5019709F05FC5809104333D
:101CF000882309F4F7C0109204331B8206C08B813D
:101D00008F5F8B838B818A3051F08B81882F90E09D
:101D100086509D4CFC018081853089F701C0000010
:101D20008B81882F90E020916A3386509D4CFC0176
:101D300020838B81882F90E086509D4CFC01808110
:101D4000882F90E08130910509F470C082309105B0
:101D50001CF4892B41F08BC08230910529F1039747
:101D600009F443C084C08B81882F90E02091B13268
:101D70003091B23225503109880F991F8E529D4CF7
:101D8000FC01318320838B81882F90E02091B33236
:101D90003091B4322D5F3F4F880F991F8A519D4C6F
:101DA000FC013183208363C08B81882F90E02091D8
:101DB000B1323091B232215F3F4F880F991F8E525E
:101DC0009D4CFC01318320838B81882F90E02091F2
:101DD000B3323091B4322D5F3F4F880F991F8A5133
:101DE0009D4CFC013183208342C08B81882F90E081
:101DF0002091B1323091B2322D5F3F4F880F991F41
:101E00008E529D4CFC01318320838B81882F90E082
:101E10002091B3323091B43225503109880F991F87
:101E20008A519D4CFC013183208321C08B81882FF6
:101E300090E02091B1323091B2322D5F3F4F880F48
:101E4000991F8E529D4CFC01318320838B81882FFA
:101E500090E02091B3323091B432215F3F4F880F30
:101E6000991F8A519D4CFC0131832083000083E738
:101E70000E948B008B8180630E948B008B81882F56
:101E800090E0880F991F8E529D4CFC0180819181BA
:101E9000892F99270E948B008B81882F90E0880FD3
:101EA000991F8E529D4CFC01808191810E948B0074
:101EB0008B81882F90E0880F991F8A519D4CFC01DF
:101EC00080819181892F99270E948B008B81882F97
:101ED00090E0880F991F8A519D4CFC01808191816F
:101EE0000E948B001D821C8259C48C819D8186506A
:101EF0009D4CFC018081853009F44BC48C819D810F
:101F000086509D4CFC018081882F90E081309105A6
:101F100009F4B4C2823091051CF4892B49F092C3B4
:101F20008230910509F4E5C0039709F4C6C18AC35C
:101F30008C819D81880F991F8E529D4CFC01808160
:101F400091819C01245031098C819D81880F991FBA
:101F50008E529D4CFC01318320838C819D81880FA2
:101F6000991F8E529D4CFC0180819181059708F448
:101F70009CC08C819D81880F991F8E529D4CFC01C5
:101F8000808191819C01ADECBCEC0E94E11BAC0115
:101F9000529542954F7045275F7045278C819D81F2
:101FA000880F991F8A519D4CFC0180819181049674
:101FB0009C01ADECBCEC0E94E11B9C01329522958A
:101FC0002F7023273F702327CA01880F991F840F82
:101FD000951F880F991F880F991F880F991F820FCF
:101FE000931F8F5C9E4CFC018081883509F45DC095
:101FF0008C819D81880F991F8E529D4CFC018081A0
:1020000091819C01ADECBCEC0E94E11BAC015295AE
:1020100042954F7045275F7045278C819D81880FC1
:10202000991F8A519D4CFC01808191819C01ADECEE
:10203000BCEC0E94E11B9C01329522952F70232756
:102040003F702327CA01880F991F840F951F880F9F
:10205000991F880F991F880F991F820F931F8F5CFC
:102060009E4CFC018081883501F183E70E948B0042
:102070008C8180610E948B008C819D81880F991FCB
:102080008E529D4CFC0180819181892F99270E945D
:102090008B008C819D81880F991F8E529D4CFC0175
:1020A000808191810E948B00CDC283E70E948B00CA
:1020B0008C810E948B008C819D8186509D4C25E0F7
:1020C000FC0120838C819D81880F991F8E529D4C2D
:1020D00024EF31E0FC01318320838C819D81880FC6
:1020E000991F8A519D4C24EF31E0FC0131832083FC
:1020F000A9C28C819D81880F991F8E529D4CFC0135
:10210000808191819C012C5F3F4F8C819D81880F44
:10211000991F8E529D4CFC01318320838C819D81BF
:10212000880F991F8E529D4CFC01808191818C33C8
:10213000914008F09EC08C819D81880F991F8E521E
:102140009D4CFC018081918104969C01ADECBCEC1E
:102150000E94E11BAC01529542954F7045275F707C
:1021600045278C819D81880F991F8A519D4CFC01C8
:102170008081918104969C01ADECBCEC0E94E11B36
:102180009C01329522952F7023273F702327CA0187
:10219000880F991F840F951F880F991F880F991F0B
:1021A000880F991F820F931F8F5C9E4CFC018081CA
:1021B000883509F45EC08C819D81880F991F8E52ED
:1021C0009D4CFC018081918104969C01ADECBCEC9E
:1021D0000E94E11BAC01529542954F7045275F70FC
:1021E00045278C819D81880F991F8A519D4CFC0148
:1021F000808191819C01ADECBCEC0E94E11B9C01B3
:10220000329522952F7023273F702327CA01880F0C
:10221000991F840F951F880F991F880F991F880F8A
:10222000991F820F931F8F5C9E4CFC018081883523
:1022300001F183E70E948B008C8180610E948B00FA
:102240008C819D81880F991F8E529D4CFC0180814D
:102250009181892F99270E948B008C819D81880F05
:10226000991F8E529D4CFC01808191810E948B00B0
:10227000E9C183E70E948B008C810E948B008C81D6
:102280009D8186509D4C25E0FC0120838C819D81A1
:10229000880F991F8E529D4C24EF31E0FC01318351
:1022A00020838C819D81880F991F8A519D4C24EF3A
:1022B00031E0FC0131832083C5C18C819D81880F71
:1022C000991F8A519D4CFC01808191819C01245071
:1022D00031098C819D81880F991F8A519D4CFC0189
:1022E000318320838C819D81880F991F8A519D4C59
:1022F000FC0180819181059708F49CC08C819D81AF
:10230000880F991F8E529D4CFC018081918104960B
:102310009C01ADECBCEC0E94E11BAC0152954295D6
:102320004F7045275F7045278C819D81880F991FCD
:102330008A519D4CFC01808191819C01ADECBCECEB
:102340000E94E11B9C01329522952F7023273F703C
:102350002327CA01880F991F840F951F880F991F83
:10236000880F991F880F991F820F931F8F5C9E4CB7
:10237000FC018081883509F45DC08C819D81880FC6
:10238000991F8E529D4CFC01808191819C01ADEC86
:10239000BCEC0E94E11BAC01529542954F70452761
:1023A0005F7045278C819D81880F991F8A519D4CB4
:1023B000FC01808191819C01ADECBCEC0E94E11B91
:1023C0009C01329522952F7023273F702327CA0145
:1023D000880F991F840F951F880F991F880F991FC9
:1023E000880F991F820F931F8F5C9E4CFC01808188
:1023F000883501F183E70E948B008C8180620E9406
:102400008B008C819D81880F991F8A519D4CFC0106
:1024100080819181892F99270E948B008C819D81D9
:10242000880F991F8A519D4CFC01808191810E94E7
:102430008B0008C183E70E948B008C810E948B0077
:102440008C819D8186509D4C25E0FC0120838C81F0
:102450009D81880F991F8E529D4C24EF31E0FC0125
:10246000318320838C819D81880F991F8A519D4CD7
:1024700024EF31E0FC0131832083E4C08C819D8115
:10248000880F991F8A519D4CFC01808191819C018C
:102490002C5F3F4F8C819D81880F991F8A519D4CE5
:1024A000FC01318320838C819D81880F991F8A5183
:1024B0009D4CFC01808191818C3D914008F09EC033
:1024C0008C819D81880F991F8E529D4CFC018081CB
:1024D000918104969C01ADECBCEC0E94E11BAC0127
:1024E000529542954F7045275F7045278C819D819D
:1024F000880F991F8A519D4CFC018081918104961F
:102500009C01ADECBCEC0E94E11B9C013295229534
:102510002F7023273F702327CA01880F991F840F2C
:10252000951F880F991F880F991F880F991F820F79
:10253000931F8F5C9E4CFC018081883509F45EC03E
:102540008C819D81880F991F8E529D4CFC0180814A
:1025500091819C01ADECBCEC0E94E11BAC01529559
:1025600042954F7045275F7045278C819D81880F6C
:10257000991F8A519D4CFC018081918104969C0198
:10258000ADECBCEC0E94E11B9C01329522952F70B2
:1025900023273F702327CA01880F991F840F951F97
:1025A000880F991F880F991F880F991F820F931FFB
:1025B0008F5C9E4CFC018081883501F183E70E948D
:1025C0008B008C8180620E948B008C819D81880FA2
:1025D000991F8A519D4CFC0180819181892F9927F7
:1025E0000E948B008C819D81880F991F8A519D4C80
:1025F000FC01808191810E948B0023C083E70E94AF
:102600008B008C810E948B008C819D8186509D4C1B
:1026100025E0FC0120838C819D81880F991F8E52BB
:102620009D4C24EF31E0FC01318320838C819D811E
:10263000880F991F8A519D4C24EF31E0FC013183B2
:10264000208300001F821E829AC08E819F818F5D31
:102650009C4CFC018081882309F48CC08C819D8175
:10266000880F991F8E529D4CFC01208131818E81F3
:102670009F81880F991F8B5F9C4CFC018081918109
:1026800003972817390708F475C08C819D81880F3E
:10269000991F8E529D4CFC01208131818E819F813A
:1026A000880F991F8B5F9C4CFC01808191810D9656
:1026B0008217930708F45EC08C819D81880F991F53
:1026C0008A519D4CFC01208131818E819F81880F30
:1026D000991F8D5E9C4CFC01808191810397281786
:1026E000390708F447C08C819D81880F991F8A5152
:1026F0009D4CFC01208131818E819F81880F991F23
:102700008D5E9C4CFC01808191810D968217930710
:1027100088F18E819F818F5D9C4CFC0180812FEF21
:10272000280F8E819F818F5D9C4CFC01208383E765
:102730000E948B008C810E948B008C819D81865031
:102740009D4C25E0FC0120838C819D81880F991F81
:102750008E529D4C24EF31E0FC01318320838C812B
:102760009D81880F991F8A519D4C24EF31E0FC0117
:10277000318320838E819F8101969F838E838091F8
:10278000B632282F30E08E819F818217930708F49C
:102790005CCF8C819D8101969D838C838C819D81F2
:1027A0000A970CF4A2CB01C0000088859985299670
:1027B0000FB6F894DEBF0FBECDBFDF91CF91089565
:1027C000CF93DF9300D0CDB7DEB79A838983898119
:1027D0009A8181309105B1F08230910579F1892B90
:1027E000B1F51092673386E290E0FC018081882F7A
:1027F00090E081709927892B69F581E090E09A83B8
:10280000898328C0109267338091CF329091D03263
:1028100088279170892B39F082E090E09A83898330
:1028200081E0809304338091D1328823A9F08FEF27
:10283000082E000C990B9A8389830EC08091673310
:10284000843060F081E090E09A83898307C01A8227
:10285000198205C0000003C0000001C0000089818A
:102860009A818130910531F08230910531F0892BC8
:1028700051F00AC01092043307C0809167338F5F14
:102880008093673301C0000089819A810F900F9077
:10289000DF91CF910895CF93DF9300D0CDB7DEB70E
:1028A0009A83898389819A818130910501F18230EF
:1028B00091051CF4892B49F08BC08230910509F4F5
:1028C00065C0039709F473C083C01092683386E231
:1028D00090E0FC018081882F90E081709927892BFE
:1028E00009F079C081E090E09A83898374C0809177
:1028F000D132882331F08FEF082E000C990B9A8388
:1029000089838091CF329091D03288279470892B1F
:10291000C1F080916A33882321F483E080936A3385
:1029200005C080916A33815080936A3386E60E94A5
:102930008B0080916A330E948B0082E090E09A8342
:1029400089838091CF329091D03288279870892BDB
:10295000D1F080916A33882F90E00196837090784F
:10296000992324F401978C6F9F6F019680936A33AB
:1029700086E60E948B0080916A330E948B0083E080
:1029800090E09A838983109268332AC080916833DB
:10299000863040F48091CF329091D0328827947065
:1029A000892BD9F481E090E09A83898316C08091C5
:1029B0006833863040F48091CF329091D0328827AE
:1029C0009870892B61F481E090E09A83898307C035
:1029D0001A82198205C0000003C0000001C0000077
:1029E00089819A818130910579F0823091051CF4BA
:1029F000892B39F018C08230910549F0039769F0AE
:102A000012C0109268330FC0109268330CC08091CE
:102A100068338F5F8093683306C0809168338F5F1F
:102A200080936833000089819A810F900F90DF9125
:102A3000CF9108950F931F93CF93DF93CDB7DEB758
:102A4000C158D1090FB6F894DEBF0FBECDBF82E2E8
:102A500090E022E230E0F90120812160FC01208336
:102A600080E090E0A0E4B1E48E839F83A887B987DB
:102A70002BEA3AEA4AE250E46E817F8188859985A3
:102A80000E94D51DDC01CB018EA79FA7A8ABB9ABD7
:102A90008E819F81A885B9859C01AD01BC01CD01C6
:102AA0000E94051CDC01CB018AAB9BABACABBDAB80
:102AB00020E030E040E85FE36EA57FA588A999A9F2
:102AC0000E94711C88231CF481E08EABF9C020E0C9
:102AD0003FEF4FE757E46AA97BA98CA99DA90E9403
:102AE000D01D18160CF0AEC020E030E04AE754E4E8
:102AF0006E817F81888599850E94761CDC01CB01DF
:102B00008FAB98AFA9AFBAAF20E030E04AEF54E402
:102B10006FA978AD89AD9AAD0E94D51DDC01CB01BE
:102B20008BAF9CAFADAFBEAF20E030E040E85FE3DD
:102B30006BAD7CAD8DAD9EAD0E94711C882344F4BD
:102B400021E030E0CE01CF96FC01318320835FC0CD
:102B500020E03FEF4FE757E46BAD7CAD8DAD9EAD10
:102B60000E94D01D18160CF044C020E030E040E276
:102B700051E46FA978AD89AD9AAD0E94D51DDC01F5
:102B8000CB01BC01CD010E94EF1CDC01CB019E01F9
:102B9000215C3F4FF9019183808323C0CE018F5B7D
:102BA0009F4F28EC30E0FC0131832083CE018F5B06
:102BB0009F4FFC01808191810197F1F79E012F5B6E
:102BC0003F4FF90191838083CE01CF96FC01808134
:102BD00091819C0121503109CE01CF96FC013183B6
:102BE0002083CE01CF96FC0180819181892BB1F6A3
:102BF00067C06BAD7CAD8DAD9EAD0E94EF1CDC015E
:102C0000CB019E01215C3F4FF90191838083CE016E
:102C10008D5B9F4F9E01215C3F4FF90120813181E7
:102C2000FC0131832083CE018D5B9F4FFC018081AD
:102C300091810197F1F79E012D5B3F4FF90191833F
:102C400080833EC020E030E04FE753E46EA57FA5CF
:102C500088A999A90E94D01D18164CF58E010B5B0E
:102C60001F4F6AA97BA98CA99DA90E94EF1CDC01BA
:102C7000CB01F80191838083CE01895B9F4F9E0138
:102C80002B5B3F4FF90120813181FC01318320838F
:102C9000CE01895B9F4FFC01808191810197F1F703
:102CA0009E01295B3F4FF901918380831CC06EA573
:102CB0007FA588A999A90E94EF1CDC01CB018EABEE
:102CC000CE01875B9F4F2EA9FC012083CE01875B3D
:102CD0009F4FFC018081282F2A95F1F7CE01875B59
:102CE0009F4FFC01208382E290E022E230E0F90174
:102CF00020812E7FFC01208380E090E0A0ECB0E4F6
:102D00008E879F87A88BB98B2BEA3AEA4AE250E478
:102D10006E857F85888999890E94D51DDC01CB014C
:102D20008A8B9B8BAC8BBD8B8E859F85A889B9893F
:102D30009C01AD01BC01CD010E94051CDC01CB0151
:102D40008E8B9F8BA88FB98F20E030E040E85FE347
:102D50006A897B898C899D890E94711C88231CF457
:102D600081E08A8FB2C020E03FEF4FE757E46E89E1
:102D70007F89888D998D0E94D01D18160CF07BC01C
:102D800020E030E04AE754E46E857F8588899989A0
:102D90000E94761CDC01CB018B8F9C8FAD8FBE8F88
:102DA00020E030E04AEF54E46B8D7C8D8D8D9E8D5C
:102DB0000E94D51DDC01CB018F8F98A3A9A3BAA3D4
:102DC00020E030E040E85FE36F8D78A189A19AA10F
:102DD0000E94711C88232CF481E090E09CA38BA3BB
:102DE0003FC020E03FEF4FE757E46F8D78A189A106
:102DF0009AA10E94D01D18164CF520E030E040E268
:102E000051E46B8D7C8D8D8D9E8D0E94D51DDC01D6
:102E1000CB01BC01CD010E94EF1CDC01CB019CA3C6
:102E20008BA30FC088EC90E09EA38DA38DA19EA1E3
:102E30000197F1F79EA38DA38BA19CA101979CA361
:102E40008BA38BA19CA1892B69F73FC06F8D78A1C3
:102E500089A19AA10E94EF1CDC01CB019CA38BA34A
:102E60008BA19CA198A78FA38FA198A50197F1F79B
:102E700098A78FA32AC020E030E04FE753E46A8987
:102E80007B898C899D890E94D01D1816ACF46E89AF
:102E90007F89888D998D0E94EF1CDC01CB019AA758
:102EA00089A789A59AA59CA78BA78BA59CA5019707
:102EB000F1F79CA78BA70FC06A897B898C899D89B4
:102EC0000E94EF1CDC01CB018A8F8A8D8DA78DA516
:102ED0008A95F1F78DA7198263C382E290E022E21E
:102EE00030E0F90120812B7FFC01208380E090E01D
:102EF000A0ECB0E48A839B83AC83BD838E01065B28
:102F00001F4F2BEA3AEA4AE250E46A817B818C81C6
:102F10009D810E94D51DDC01CB01F8018083918346
:102F2000A283B3838E01025B1F4F8A819B81AC8198
:102F3000BD819C01AD01BC01CD010E94051CDC01DD
:102F4000CB01F80180839183A283B383CE01865B9A
:102F50009F4F20E030E040E85FE3FC016081718139
:102F6000828193810E94711C88233CF4CE018E5A89
:102F70009F4F21E0FC0120832CC1CE01825B9F4F3B
:102F800020E03FEF4FE757E4FC01608171818281CF
:102F900093810E94D01D18160CF0CDC020E030E0C7
:102FA0004AE754E46A817B818C819D810E94761C72
:102FB000DC01CB019E012D5A3F4FF90180839183A3
:102FC000A283B3838E01095A1F4FCE018D5A9F4FA2
:102FD00020E030E04AEF54E4FC016081718182819D
:102FE00093810E94D51DDC01CB01F8018083918380
:102FF000A283B383CE01895A9F4F20E030E040E89E
:103000005FE3FC0160817181828193810E94711C68
:1030100088234CF4CE01855A9F4F21E030E0FC011B
:10302000318320836DC0CE01895A9F4F20E03FEF4E
:103030004FE757E4FC0160817181828193810E9496
:10304000D01D18160CF04AC0CE018D5A9F4F20E0BB
:1030500030E040E251E4FC01608171818281938122
:103060000E94D51DDC01CB018E01055A1F4FBC010A
:10307000CD010E94EF1CDC01CB01F801918380831C
:1030800024C0CE01835A9F4F28EC30E0FC013183ED
:103090002083CE01835A9F4FFC018081918101974B
:1030A000F1F79E01235A3F4FF90191838083CE01AE
:1030B000855A9F4F9E01255A3F4FF901208131814A
:1030C00021503109FC0131832083CE01855A9F4F65
:1030D000FC0180819181892BA1F67BC08E01055A6C
:1030E0001F4FCE01895A9F4FFC01608171818281FF
:1030F00093810E94EF1CDC01CB01F8019183808356
:10310000CE01815A9F4F9E01255A3F4FF9012081E0
:103110003181FC0131832083CE01815A9F4FFC0114
:10312000808191810197F1F79E01215A3F4FF9016A
:10313000918380834EC0CE01865B9F4F20E030E0BC
:103140004FE753E4FC0160817181828193810E9489
:10315000D01D18166CF58E010F591F4FCE01825BE2
:103160009F4FFC0160817181828193810E94EF1CDD
:10317000DC01CB01F80191838083CE018D599F4FF3
:103180009E012F593F4FF90120813181FC0131838C
:103190002083CE018D599F4FFC0180819181019741
:1031A000F1F79E012D593F4FF9019183808328C08B
:1031B0008E010E5A1F4FCE01865B9F4FFC0160812E
:1031C0007181828193810E94EF1CDC01CB01F801A7
:1031D0008083CE018B599F4F9E012E5A3F4FF9019C
:1031E0002081FC012083CE018B599F4FFC018081FF
:1031F000282F2A95F1F7CE018B599F4FFC01208390
:1032000089818C30B8F580E290E0FC018081882FC4
:1032100090E082709927892BB1F48981282F30E0C2
:1032200081E090E002C0880F991F2A95E2F79C0187
:103230008091CF329091D032822B932B9093D032C9
:103240008093CF3217C08981282F30E081E090E051
:1032500002C0880F991F2A95E2F7809590959C01EE
:103260008091CF329091D032822393239093D032A9
:103270008093CF3282E290E022E230E0F9012081B7
:103280002460FC01208380E090E0A0ECB0E48A8719
:103290009B87AC87BD878E010A591F4F2BEA3AEAFC
:1032A0004AE250E46A857B858C859D850E94D51D08
:1032B000DC01CB01F80180839183A283B3838E016B
:1032C00006591F4F8A859B85AC85BD859C01AD0144
:1032D000BC01CD010E94051CDC01CB01F8018083FB
:1032E0009183A283B383CE018A599F4F20E030E0BF
:1032F00040E85FE3FC0160817181828193810E94DB
:10330000711C88233CF4CE0182599F4F21E0FC01BF
:1033100020832CC1CE0186599F4F20E03FEF4FE71D
:1033200057E4FC0160817181828193810E94D01DEC
:1033300018160CF0CDC020E030E04AE754E46A856E
:103340007B858C859D850E94761CDC01CB019E01CE
:1033500021593F4FF90180839183A283B3838E016A
:103360000D581F4FCE0181599F4F20E030E04AEFAA
:1033700054E4FC0160817181828193810E94D51D9A
:10338000DC01CB01F80180839183A283B383CE015A
:103390008D589F4F20E030E040E85FE3FC01608102
:1033A0007181828193810E94711C88234CF4CE012B
:1033B00089589F4F21E030E0FC01318320836DC0AC
:1033C000CE018D589F4F20E03FEF4FE757E4FC01BF
:1033D00060817181828193810E94D01D18160CF04A
:1033E0004AC0CE0181599F4F20E030E040E251E4D5
:1033F000FC0160817181828193810E94D51DDC0175
:10340000CB018E0109581F4FBC01CD010E94EF1C5A
:10341000DC01CB01F8019183808324C0CE01875861
:103420009F4F28EC30E0FC0131832083CE01875888
:103430009F4FFC01808191810197F1F79E012758F0
:103440003F4FF90191838083CE0189589F4F9E01A0
:1034500029583F4FF9012081318121503109FC0168
:1034600031832083CE0189589F4FFC018081918157
:10347000892BA1F67BC08E0109581F4FCE018D58B4
:103480009F4FFC0160817181828193810E94EF1CBA
:10349000DC01CB01F80191838083CE0185589F4FD9
:1034A0009E0129583F4FF90120813181FC01318370
:1034B0002083CE0185589F4FFC0180819181019727
:1034C000F1F79E0125583F4FF901918380834EC04B
:1034D000CE018A599F4F20E030E04FE753E4FC01D2
:1034E00060817181828193810E94D01D18166CF5D4
:1034F0008E0103581F4FCE0186599F4FFC016081FA
:103500007181828193810E94EF1CDC01CB01F80163
:1035100091838083CE0181589F4F9E0123583F4F56
:10352000F90120813181FC0131832083CE01815852
:103530009F4FFC01808191810197F1F79E012158F5
:103540003F4FF9019183808328C08E0102591F4F9C
:10355000CE018A599F4FFC016081718182819381E4
:103560000E94EF1CDC01CB01F8018083CE018F5754
:103570009F4F9E0122593F4FF9012081FC0120837A
:10358000CE018F579F4FFC018081282F2A95F1F79C
:10359000CE018F579F4FFC01208389818F5F8983E4
:1035A0008981803108F499CC0000CF57DF4F0FB6E6
:1035B000F894DEBF0FBECDBFDF91CF911F910F9169
:1035C0000895CF93DF9300D000D0CDB7DEB79C83B2
:1035D0008B831A82198206C0000089819A81019624
:1035E0009A83898329813A818B819C8128173907A5
:1035F00098F300000F900F900F900F90DF91CF91F4
:103600000895CF93DF93CDB7DEB72F970FB6F89419
:10361000DEBF0FBECDBF8091B1329091B232CC01EE
:10362000A0E0B0E0BC01CD010E941E1DDC01CB0179
:1036300020E030E040EA51E4BC01CD010E94761C5C
:10364000DC01CB01BC01CD010E94E81CDC01CB01F7
:103650009F838E838091B3329091B432CC01A0E0ED
:10366000B0E0BC01CD010E941E1DDC01CB0120E0B9
:1036700030E040EA51E4BC01CD010E94761CDC013F
:10368000CB01BC01CD010E94E81CDC01CB01998774
:1036900088878FE097E29A8389831D821C8266C0A7
:1036A0008C819D81880F991F8B5F9E4FFC018081CB
:1036B000882F90E02E813F81A901481B590BCA0138
:1036C0009B878A878C819D81880F991F8A5F9E4F77
:1036D000FC018081882F90E028853985A901481B4D
:1036E000590BCA019D878C874A855B858A859B8596
:1036F000489F9001499F300D589F300D11246C85D3
:103700007D854C855D85649FC001659F900D749F8C
:10371000900D1124820F931F092E000CAA0BBB0BD6
:10372000BC01CD010E94201DDC01CB01BC01CD01FB
:103730000E94481EDC01CB01BC01CD010E94EF1CA0
:10374000DC01CB019F878E872E853F8589819A81F9
:103750002817390730F48E859F859A8389838C8159
:103760008B838C819D8101969D838C838091040144
:10377000282F30E08C819D818217930708F490CF29
:103780008B818093693300002F960FB6F894DEBFCB
:103790000FBECDBFDF91CF91089597FB072E16F492
:1037A000009407D077FD09D00E94F01B07FC05D0DC
:1037B0003EF4909581959F4F0895709561957F4F48
:1037C0000895A29FB001B39FC001A39F700D811DFA
:1037D0001124911DB29F700D811D1124911D08951A
:1037E000AA1BBB1B51E107C0AA1FBB1FA617B70727
:1037F00010F0A61BB70B881F991F5A95A9F7809543
:103800009095BC01CD0108955058BB27AA270E946E
:103810001C1C0C94961D0E94881D38F00E948F1D60
:1038200020F039F49F3F19F426F40C94851D0EF412
:10383000E095E7FB0C947F1DE92F0E94A71D58F32C
:10384000BA17620773078407950720F079F4A6F585
:103850000C94C91D0EF4E0950B2EBA2FA02D0B0170
:10386000B90190010C01CA01A0011124FF27591BC5
:1038700099F0593F50F4503E68F11A16F040A22FCB
:10388000232F342F4427585FF3CF4695379527953C
:10389000A795F0405395C9F77EF41F16BA0B620B3B
:1038A000730B840BBAF09150A1F0FF0FBB1F661F82
:1038B000771F881FC2F70EC0BA0F621F731F841FC5
:1038C00048F4879577956795B795F7959E3F08F0EB
:1038D000B0CF9395880F08F09927EE0F97958795AD
:1038E00008950E945B1D08F481E008950E948A1CDF
:1038F0000C94961D0E948F1D58F00E94881D40F068
:1039000029F45F3F29F00C947F1D51110C94CA1DBE
:103910000C94851D0E94A71D68F39923B1F35523CC
:1039200091F3951B550BBB27AA27621773078407D2
:1039300038F09F5F5F4F220F331F441FAA1FA9F368
:1039400035D00E2E3AF0E0E832D091505040E69556
:10395000001CCAF72BD0FE2F29D0660F771F881FB7
:10396000BB1F261737074807AB07B0E809F0BB0BAA
:10397000802DBF01FF2793585F4F3AF09E3F5105BE
:1039800078F00C947F1D0C94CA1D5F3FE4F3983EC1
:10399000D4F3869577956795B795F7959F5FC9F7A7
:1039A000880F911D9695879597F90895E1E0660F28
:1039B000771F881FBB1F621773078407BA0720F0A1
:1039C000621B730B840BBA0BEE1F88F7E09508950A
:1039D0000E94EF1C6894B1110C94CA1D08950E94B6
:1039E000AF1D88F09F5798F0B92F9927B751B0F0C5
:1039F000E1F0660F771F881F991F1AF0BA95C9F773
:103A000014C0B13091F00E94C91DB1E008950C942A
:103A1000C91D672F782F8827B85F39F0B93FCCF3DD
:103A2000869577956795B395D9F73EF490958095EF
:103A3000709561957F4F8F4F9F4F0895E89409C00F
:103A400097FB3EF490958095709561957F4F8F4FD1
:103A50009F4F9923A9F0F92F96E9BB279395F695E7
:103A6000879577956795B795F111F8CFFAF4BB0F65
:103A700011F460FF1BC06F5F7F4F8F4F9F4F16C0C9
:103A8000882311F096E911C0772321F09EE8872F53
:103A9000762F05C0662371F096E8862F70E060E00F
:103AA0002AF09A95660F771F881FDAF7880F969588
:103AB000879597F90895990F0008550FAA0BE0E82C
:103AC000FEEF16161706E807F907C0F012161306E0
:103AD000E407F50798F0621B730B840B950B39F420
:103AE0000A2661F0232B242B252B21F408950A2686
:103AF00009F4A140A6958FEF811D811D089597F9C6
:103B00009F6780E870E060E008959FEF80EC089583
:103B100000240A94161617061806090608950024AC
:103B20000A9412161306140605060895092E039426
:103B3000000C11F4882352F0BB0F40F4BF2B11F49A
:103B400060FF04C06F5F7F4F8F4F9F4F089557FDF9
:103B50009058440F551F59F05F3F71F04795880FFB
:103B600097FB991F61F09F3F79F087950895121692
:103B700013061406551FF2CF4695F1DF08C016163E
:103B800017061806991FF1CF8695710561050894EF
:103B90000895E894BB2766277727CB0197F9089506
:103BA0000E945B1D08F48FEF08950E94E81D0C949D
:103BB000961D0E94881D38F00E948F1D20F09523CD
:103BC00011F00C947F1D0C94851D11240C94CA1DBA
:103BD0000E94A71D70F3959FC1F3950F50E0551FEC
:103BE000629FF001729FBB27F00DB11D639FAA2752
:103BF000F00DB11DAA1F649F6627B00DA11D661FA1
:103C0000829F2227B00DA11D621F739FB00DA11DC1
:103C1000621F839FA00D611D221F749F3327A00D7B
:103C2000611D231F849F600D211D822F762F6A2F17
:103C300011249F5750409AF0F1F088234AF0EE0F7C
:103C4000FF1FBB1F661F771F881F91505040A9F7A9
:103C50009E3F510580F00C947F1D0C94CA1D5F3F60
:103C6000E4F3983ED4F3869577956795B795F795E5
:103C7000E7959F5FC1F7FE2B880F911D969587955D
:103C800097F9089519F416F40C94851D0C94881E68
:103C90000E94AF1DB8F39923C9F3B6F39F57550B94
:103CA00087FF0E94961E0024A0E640EA90018058FB
:103CB0005695979528F4805C660F771F881F20F033
:103CC00026173707480730F4621B730B840B202933
:103CD00031294A2BA69517940794202531254A2788
:103CE00058F7660F771F881F20F0261737074807F9
:103CF00030F4620B730B840B200D311D411DA09518
:103D000081F7B901842F9158880F9695879508956A
:103D10009F3F31F0915020F4879577956795B7953F
:103D2000880F911D9695879597F908959150504069
:103D3000660F771F881FD2F708958F929F92AF92D8
:103D4000BF92CF92DF92EF92FF92CF93DF93EC017D
:103D5000688179818A819B81611571058105910551
:103D600021F464E279ED8BE597E02DE133EF41E05A
:103D700050E00E94FE1E49015A019B01AC01A7EAD6
:103D8000B1E40E941D1F6B017C01ACEEB4EFA501F4
:103D900094010E942B1FDC01CB018C0D9D1DAE1DDB
:103DA000BF1DB7FF03C00197A109B048888399835D
:103DB000AA83BB839F77DF91CF91FF90EF90DF9035
:103DC000CF90BF90AF909F908F9008950C949D1EC0
:103DD00082EC92E30C949D1EA0E0B0E08093C2328E
:103DE0009093C332A093C432B093C5320895DC01DE
:103DF00001C06D9341505040E0F70895052E97FBA8
:103E00001EF400940E94151F57FD07D00E94301F1A
:103E100007FC03D04EF40C94151F50954095309537
:103E200021953F4F4F4F5F4F089590958095709526
:103E300061957F4F8F4F9F4F08950E94E11BA59F73
:103E4000900DB49F900DA49F800D911D1124089595
:103E5000B7FF0C941D1F0E941D1F821B930B08951A
:103E6000A1E21A2EAA1BBB1BFD010DC0AA1FBB1F7E
:103E7000EE1FFF1FA217B307E407F50720F0A21BF0
:103E8000B30BE40BF50B661F771F881F991F1A945D
:103E900069F760957095809590959B01AC01BD0187
:083EA000CF010895F894FFCF53
:103EA800010000000F001101170301030B060406AF
:103EB80009070107140717080B08100A010B080C5B
:103EC8000C0E1300000000000000000000000000BD
:103ED80000000000000000000000000000000000DA
:103EE80000000000010000000000000000000000C9
:103EF80000000000000000000000000000000000BA
:103F080000000000020000000000000000000000A7
:103F18000000000000000000000000000000000099
:103F28000000000003000000000000000000000086
:103F38000000000000000000000000000000000079
:103F48000000000004000000000000000000000065
:103F58000000000000000000000000000000000059
:103F68000000000005000000000000000000000044
:103F78000000000000000000000000000000000039
:103F88000000000006000000000000000000000023
:103F98000000000000000000000000000000000019
:103FA8000000000007000000000000000000000002
:103FB80000000000000000000000000000000000F9
:103FC80000000000080000000000000000000000E1
:103FD80000000000000000000000000000000000D9
:103FE80000000000090000000000000000000000C0
:103FF80000000000000000000000000000000000B9
:10400800000000000A00000000000000000000009E
:104018000000000000000000000000000000000098
:10402800000000000B00000000000000000000007D
:104038000000000000000000000000000000000078
:10404800000000000C00000000000000000000005C
:104058000000000000000000000000000000000058
:10406800000000000D00000000000000000000003B
:104078000000000000000000000000000000000038
:10408800000000000E000001010101010101010111
:10409800010101010F0F0E0E0E0E0E0E0E0E0E0E6A
:1040A8000E0E0E000F0001000100010101010101C7
:1040B80001010101100F0E0F0E0F0F0F0F0F0F0F41
:1040C8000F0F0F00100001000101010101000001A4
:1040D8000101000011100F10101010100F0F101018
:1040E800100F0F0011000000010001010101010182
:1040F80001010101001210111011111111111111FA
:10410800111111001200000001010101010101015A
:1041180001010101111311121212121212121212BC
:104128001212120013000000010101010101010136
:104138000100010112141213131313131313131391
:104148001213130014000000010101010101010113
:104158000100010013151314141414141414141466
:1041680013141300150001000101010101010101EF
:10417800010001001415141515151515151515153B
:1041880014151400160000000101010101010101CC
:10419800010001001517151616161616161616160E
:1041A80015161500170001000101010001000101A9
:1041B80001000100161716171717161716171717E5
:1041C80016171601000000000000000000000000A3
:1041D80000000000000000000000000000000000D7
:1041E80000000001010000000000000000000000C5
:1041F80000000000000000000000000000000000B7
:1042080000000001020000000000000000000000A3
:104218000000000000000000000000000000000096
:104228000000000103000000000000000000000082
:104238000000000000000000000000000000000076
:104248000000000104000000000000000000000061
:104258000000000000000000000000000000000056
:104268000000000105000000000000000000000040
:104278000000000000000000000000000000000036
:10428800000000010600000000000000000000001F
:104298000000000000000000000000000000000016
:1042A80000000001070000000000000000000000FE
:1042B80000000000000000000000000000000000F6
:1042C80000000001080000000000000000000000DD
:1042D80000000000000000000000000000000000D6
:1042E80000000001090000000000000000000000BC
:1042F80000000000000000000000000000000000B6
:10430800000000010A00000000000000000000009A
:104318000000000000000000000000000000000095
:10432800000000010B000000000000000000000079
:104338000000000000000000000000000000000075
:10434800000000010C000000000000000000000058
:104358000000000000000000000000000000000055
:10436800000000010D000000000000000000000037
:104378000000000000000000000000000000000035
:10438800000000010E010102020202020202020202
:10439800020202020F0F0E0E0E0E0E0E0E0E0E0E63
:1043A8000E0E0E010F0101010202020202020202B8
:1043B8000202020210100E0F0F0F0F0F0F0F0F0F38
:1043C8000F0F0F0110010101020202020202010295
:1043D8000102020211110F1010101010100F100F0F
:1043E8001010100111000101020202020202020271
:1043F80002020202111210111111111111111111E1
:10440800111111011201010102020202020201024C
:1044180002020202111311121212121212111212B6
:104428001212120113000101010101010101010130
:104438000101010113141212121212121212121295
:10444800121212011401010101010101010101010E
:10445800010101011315131313131313131313136A
:1044680013131301150101010101010101010101EA
:10447800010101011416141414141414141414143E
:1044880014141401160101010101010101010101C6
:104498000101010115171515151515151515151512
:1044A80015151501170100010101010101010101A3
:1044B80001010101160016161616161616161616FE
:1044C8001616160200020302030303030303030381
:1044D80003030303010001000000000000000000C6
:1044E80000000002010303030303030303030303A0
:1044F800030303030101010101010101010101019C
:10450800010101020200000000000000000000009C
:104518000000000000000000000000000000000093
:10452800000000020300000000000000000000007E
:104538000000000000000000000000000000000073
:10454800000000020400000000000000000000005D
:104558000000000000000000000000000000000053
:10456800000000020500000000000000000000003C
:104578000000000000000000000000000000000033
:10458800000000020600000000000000000000001B
:104598000000000000000000000000000000000013
:1045A80000000002070000000000000000000000FA
:1045B80000000000000000000000000000000000F3
:1045C80000000002080000000000000000000000D9
:1045D80000000000000000000000000000000000D3
:1045E80000000002090000000000000000000000B8
:1045F80000000000000000000000000000000000B3
:10460800000000020A020203020303030303030378
:10461800030303030B0B0A0B0A0A0A0A0A0A0A0A0B
:104628000A0A0A020B020203030303030303030338
:10463800030302030C0C0B0B0B0B0B0B0B0B0B0BE1
:104648000B0C0B020C020202020303030303030315
:10465800020303030D0D0B0B0C0C0C0C0C0C0C0BB8
:104668000C0C0C020D0202020303030303030303F1
:10467800030303030E0E0C0D0D0D0D0D0D0D0D0D89
:104688000D0D0D020E0201020303030303030303CE
:10469800030303030F0E0D0E0E0E0E0E0E0E0E0E5E
:1046A8000E0E0E020F0202020302030303030303AA
:1046B8000303030310100E0F0E0F0F0F0F0F0F0F32
:1046C8000F0F0F0210020202030203030202020389
:1046D8000302020211110F100F10100F0F0F10100C
:1046E8000F0F0F0211010202020303030202030368
:1046F80003020202111210101111111010111111E0
:104708001010100212020102020303030303020342
:1047180003020303111211111212121212111212B2
:104728001112120213000000000000000000000037
:104738000000000000000000000000000000000071
:10474800000000021400000000000000000000004B
:104758000000000000000000000000000000000051
:10476800000000021500000000000000000000002A
:104778000000000000000000000000000000000031
:1047880000000002160102010101010101010101FD
:104798000101010116171616161616161616161604
:1047A800161616021701010101010101010101019B
:1047B80002010101171717171717171717171716D9
:1047C8001717170300030403040404040404040370
:1047D80004040404010001000000000000000100BE
:1047E8000000000301030400040404040303040399
:1047F8000404040402010001010101020201020192
:10480800010101030204040304040404030304046F
:104818000304040402020102020202030302020169
:10482800020202030304040304040404040304044A
:10483800030404040303020303030303040303023E
:104848000303030304040403040404040404040425
:104858000404040404040304040404040404040411
:10486800040404030500000000000000000000002C
:104878000000000000000000000000000000000030
:104888000000000306000000000000000000000017
:104898000000000000000000000000000000000010
:1048A80000000003070000000000000000000000F6
:1048B80000000000000000000000000000000000F0
:1048C80000000003080000000000000000000000D5
:1048D80000000000000000000000000000000000D0
:1048E80000000003090000000000000000000000B4
:1048F80000000000000000000000000000000000B0
:10490800000000030A03020403040404040404046A
:10491800040404040B0A0A0B0A0A0A0A0A0A0A0A05
:104928000A0A0A030B02020400040404040404042F
:10493800040403040B0B0B000B0B0B0B0B0B0B0BE7
:104948000B0C0B030C020203030404040404040408
:10495800040404040C0C0B0B0C0C0C0C0C0C0C0CB1
:104968000C0C0C030D0203030304040404040404E4
:10497800040404040D0E0C0C0D0D0D0D0D0D0D0D84
:104988000D0D0D030E0203030304040404040404C0
:10499800040404040E0F0D0D0E0E0E0E0E0E0E0E58
:1049A8000E0E0E030F02030303040404040404049C
:1049B800040404040F100E0E0F0F0F0F0F0F0F0F2C
:1049C8000F0F0F0310020303030404040404040478
:1049D8000403040410110F0F101010101010101001
:1049E8000F10100311020303030403040404040456
:1049F80003030404111210101110111111111110D8
:104A08001011110312020203030403040404030433
:104A180003030404121211111211121212111211AD
:104A28001112120313000000000000000000000033
:104A3800000000000000000000000000000000006E
:104A48000000000314000000000000000000000047
:104A5800000000000000000000000000000000004E
:104A68000000000315000000000000000000000026
:104A7800000000000000000000000000000000002E
:104A880000000003160203020202020202020202EE
:104A980002020202161716161616161616161616FD
:104AA800161616031702020202020202020202028C
:104AB80003020202171717171717171717171716D2
:104AC8001717170400050403050405040505050464
:104AD80005050505000100000100010000000100B6
:104AE8000000000401050403050405050505050487
:104AF800050505050102010102010101010102018B
:104B08000101010402050403050405050505050561
:104B18000405050502030202030202020202020161
:104B2800020202040305040305050504050505053D
:104B38000405050503040303030302030303030237
:104B48000303030404050503050505040505050518
:104B5800050505050404040404040304040404040A
:104B68000404040405000000000000000000000028
:104B7800000000000000000000000000000000002D
:104B88000000000406000000000000000000000013
:104B9800000000000000000000000000000000000D
:104BA80000000004070000000000000000000000F2
:104BB80000000000000000000000000000000000ED
:104BC80000000004080000000000000000000000D1
:104BD80000000000000000000000000000000000CD
:104BE80000000004090000000000000000000000B0
:104BF80000000000000000000000000000000000AD
:104C0800000000040A03040503050505050505055C
:104C1800050505050A0B0A0A0A0A0A0A0A0A0A0AFF
:104C28000A0A0A040B03040503050505050505051D
:104C3800050504050B0C0B0B0B0B0B0B0B0B0B0BD4
:104C48000B0C0B040C0304040305050505050505F9
:104C5800050505050C0D0B0C0C0C0C0C0C0C0C0CA8
:104C68000C0C0C040D0304040305050505050505D6
:104C7800050505050D0E0C0D0D0D0D0D0D0D0D0D7C
:104C88000D0D0D040E0304040404050505050505B2
:104C9800040505050E0F0D0D0D0E0E0E0E0E0E0D54
:104CA8000E0E0E040F03040404040505050505058E
:104CB800050505050F100E0E0E0F0F0F0F0F0F0F26
:104CC8000F0F0F0410030404040404040404040470
:104CD8000404040410110F0F0F0F0F0F0F0F0F0F05
:104CE8000F0F0F0411030304030404040404040451
:104CF80004040404111110111010101010101010D9
:104D0800101010041203030403040404040404042C
:104D180004040404121211121111111111111111AC
:104D28001111110413000000000000000000000031
:104D3800000000000000000000000000000000006B
:104D48000000000414000000000000000000000043
:104D5800000000000000000000000000000000004B
:104D68000000000415000000000000000000000022
:104D7800000000000000000000000000000000002B
:104D88000000000416000000000000000000000001
:104D9800000000000000000000000000000000000B
:104DA80000000004170000000000000000000000E0
:104DB80000000000000000000000000000000000EB
:104DC80000000005000505040505050505050505A0
:104DD80006060606010100010101010101010100A9
:104DE800000000050105050405050506050505057E
:104DF800060606060202010202020102020202017E
:104E0800010101050205050405050505050505055A
:104E18000505050503030203030301030303030157
:104E28000303030503050505050505050605050531
:104E3800050605060404020404040203040404022B
:104E4800030403050405050405060505060506050E
:104E580006060606050504050405030405040504FD
:104E680004040405050505050505050506050605EB
:104E780006060606060604060406040506050605D3
:104E880005050505060505050506050506050605C6
:104E980006060606070705070607050607060706A6
:104EA80006060605070505050506050506050605A2
:104EB800060606060808060807080607080708077A
:104EC800070707050805050505060505060506057E
:104ED800060606060909070908090708090809084E
:104EE800080808050905050505050605060506055A
:104EF800060606060A0A080A080908090A090A0924
:104F0800090909050A040505040505050605060637
:104F1800060606060A0B090A0909090A0B0A0A0AFB
:104F28000A0A0A050B040505040506050605060612
:104F3800060605060B0C0A0B0A0B0A0B0C0B0B0BCF
:104F48000B0C0B050C0405050405060506050606ED
:104F5800060606060C0D0B0C0B0C0B0C0D0C0C0CA2
:104F68000C0C0C050D0405050405060506050606CA
:104F7800060606060D0E0C0D0C0D0C0D0E0D0D0D76
:104F88000D0D0D050E0405050505060506060606A4
:104F9800060606060E0F0D0D0D0E0D0E0E0E0E0E4C
:104FA8000E0E0E050F040405050505050606060682
:104FB800060606060F0F0E0E0E0E0E0F0F0F0F0F22
:104FC8000F0F0F0510000000000000000000000097
:104FD80000000000000000000000000000000000C9
:104FE80000000005110000000000000000000000A3
:104FF80000000000000000000000000000000000A9
:105008000000000512000000000000000000000081
:105018000000000000000000000000000000000088
:105028000000000513000000000000000000000060
:105038000000000000000000000000000000000068
:10504800000000051400000000000000000000003F
:105058000000000000000000000000000000000048
:10506800000000051500000000000000000000001E
:105078000000000000000000000000000000000028
:1050880000000005160000000000000000000000FD
:105098000000000000000000000000000000000008
:1050A80000000005170000000000000000000000DC
:1050B80000000000000000000000000000000000E8
:1050C8000000000600050505050605060507070793
:1050D80007070707000000000100010000000000AA
:1050E8000000000601050505050505070507070772
:1050F8000707070701010101010101010101010180
:10510800010101060200000000000000000000008C
:105118000000000000000000000000000000000087
:10512800000000060306060505060605060606062F
:105138000606060604040303040403040404040422
:105148000404040604060605050006050606060707
:1051580007070707050504040005040505050404F9
:1051680004040406050606060506060506060607DF
:1051780007070706060604050406050606060505CC
:1051880005050606060506060506060506060607BB
:1051980007070707060705060507060707070606A0
:1051A8000606060607050606050606050606060798
:1051B8000707070707080607060807080808070774
:1051C8000707070608050606050606050606060675
:1051D800060606060809070807090809090909074C
:1051E8000709090609050606050600050607070654
:1051F80007070707090A08090800090A09090A0927
:10520800090909060A050606050606060607070629
:10521800070707070A0B090A0909090B0A0A0B0AF3
:105228000A0A0A060B050606050606060607070605
:10523800070706070B0C0A0B0A0A0A0C0B0B0C0BC8
:105248000B0C0B060C0506060506060606070706E0
:10525800070707070C0D0B0C0B0B0B0D0C0C0D0C9B
:105268000C0C0C060D0506060506060606060706BE
:10527800070707070D0E0C0D0C0C0C0E0E0D0E0D6E
:105288000D0D0D060E05060605060606060606069B
:10529800060606060E0F0D0E0D0D0D0F0F0D0F0D48
:1052A8000D0D0F060F050506060606060607070775
:1052B800070706070F0F0E0E0E0E0E100F0F0F0F1B
:1052C8000F0E0F0610060606060606060607060750
:1052D800070706070F0F0F0F0F0F0F11100F1010F2
:1052E800100F10061106060606060606070706072B
:1052F80007070607101010101010101111101111C7
:105308001110110612060606060606060707060706
:10531800070706071111111111111112121112129A
:1053280012111206130606060606060606070707E2
:10533800070707071212121212121214131313136B
:1053480013131306140606060606060607070706BD
:105358000707070713131313131313141414131441
:1053680014141406150000000000000000000000DE
:105378000000000000000000000000000000000025
:1053880000000006160707070707070707060707AD
:1053980007070707161616161616161617161616E0
:1053A800161616061707070707070707060707074A
:1053B80007070707171717171717171617171717B6
:1053C800171717070006060606060607080808083E
:1053D80008080808000000000000010000000000A4
:1053E8000000000701060606060608000808080867
:1053F800080808080101010101010001010101017A
:105408000101010702000000000000000000000088
:105418000000000000000000000000000000000084
:10542800000000070300000000000000000000006A
:105438000000000000000000000000000000000064
:1054480000000007040606060606070806080808FE
:1054580008080808040404040405040404040404F3
:1054680004040407050606070606060806080808D1
:1054780008080808050504050505050505050505C9
:1054880005050507060606070607060806080808AC
:10549800080808080606050605060606060606069E
:1054A8000606060707060607060706080608080888
:1054B8000808080807070607060707070707070772
:1054C80007070707080000000000000000000000B0
:1054D80000000000000000000000000000000000C4
:1054E800000000070907060606060608060707085B
:1054F800080808080A090909090909090A0A090915
:10550800090909070A07060706060607060707081E
:10551800080808080B0A090A0A0A090A0B0B0A0AEA
:105528000A0A0A070B0606070606060706070808FA
:10553800080807080B0B0A0B0B0B0A0B0C0B0B0BC1
:105548000B0C0B070C0606070606070706080708D4
:10555800080808080C0C0B0C0C0B0B0C0C0B0C0C97
:105568000C0C0C070D0606070606070706080808B0
:10557800080808080D0D0C0D0D0C0C0D0D0D0D0D6A
:105588000D0D0D070E0000000000000000000000D7
:105598000000000000000000000000000000000003
:1055A800000000070F060606060606080707080794
:1055B800080808080F0F0F0F0F0F0F10100F100F0C
:1055C8000F0F0F0710060606060606070708080845
:1055D800080808081010101010100F1110101010E3
:1055E8001010100711060706060606070708080721
:1055F80008080808111011111111101211111011B9
:1056080011111107120607060606060707080808FB
:10561800080708081211121212121113121212128C
:1056280011121207130607060606070707080807D8
:105638000807080813121313131212141313121362
:1056480012131307140707060606070700080807BA
:10565800080808081313141414131300141413144B
:1056680014141407150000000000000000000000DA
:105678000000000000000000000000000000000022
:10568800000000071608080808080808080708089E
:1056980008080808161616161616161617161616D9
:1056A8001616160717080808080808080700080843
:1056B80008080808171717171717171600171717C6
:1056C800171717080008080707080808080808082F
:1056D8000909080801010000010101010101010097
:1056E8000001010801080807070808070808080852
:1056F800090908080202010102020102020202016C
:10570800010202080208080808080808080808082A
:10571800090909080303010303030103030303023F
:105728000202030803080808080808080808080807
:105738000909080804040204040402040404040314
:1057480003040408040807070707070808080808E7
:1057580008090808050404040404030505050503ED
:1057680004050508050807070707070808080808C3
:1057780009090909060505050505040606060605BD
:1057880005050508060807070708070808080808A0
:105798000909090907060606050605070707070692
:1057A800060606080708070707070708080808087D
:1057B8000909090908070707070706080808080765
:1057C8000707070808080808080808080808080854
:1057D800080909090909070907090709090909073A
:1057E8000808080809070708070707080808080835
:1057F80008090909090908090909080A0A0A0A0811
:10580800090909080A07080807070708080808080F
:10581800080909090A0B090A0A0A090B0B0B0B09E3
:105828000A0A0A080B0708080707070808080008F3
:10583800080908090B0C0A0B0B0B0A0C0C000C0AC4
:105848000B0C0B080C0707080707070808080808C7
:10585800080909090C0C0B0C0C0C0B0D0D0B0D0B8E
:105868000C0C0C080D0707080707070808080808A4
:10587800080909090D0D0C0D0D0D0C0E0E0C0E0C62
:105888000D0D0D080E08080808080808080808087B
:10589800080909090F0F0D0D0D0D0D0F0F0D0F0D37
:1058A8000E0E0E080F07070807080708070808085C
:1058B800080909090F0F0E0F0E0F0E0F100E100E0C
:1058C8000F0F0F081007070808080808070908003D
:1058D8000809080910100F0F0F0F0F10100F000FF5
:1058E800100F100811070808080808080809080810
:1058F80008090809111010101010101211101010BA
:1059080011101108120708080708070808090808ED
:10591800080908091211111211121113121111118B
:1059280012111208130708080708070808090808C9
:10593800080908091312121312131214131212125F
:1059480013121308140808080708070807090808A5
:105958000809080913131314131413141413131335
:1059680014131408150000000000000000000000D7
:10597800000000000000000000000000000000001F
:10598800000000081609090909090909090809098F
:1059980009090909161616161616161617161616D2
:1059A800161616081709090909090909080709092E
:1059B80009090909171717171717171617171717A8
:1059C8001717170900080908080908080909090923
:1059D80009090A0A00010000010000010101010192
:1059E8000100000901080908080908080909090946
:1059F8000A090A0A01020101020101020202020166
:105A08000201010902080909080908080909090920
:105A180009090A0A0203010203020203030303013C
:105A280003020209030809090809080809090909FC
:105A38000A090A0A0304020304030304040404030E
:105A480004030309040809080808080909090909D9
:105A580009090A0A040504040404030505050503E5
:105A680005040409050809080808080909090909B5
:105A7800090A0A0A050605050505040606060604B8
:105A88000505050906080908080808090909090992
:105A9800090A0A0A0607060606060507070707058C
:105AA800060606090708090808080809090909096E
:105AB800090A0A0A07080707070706080808080660
:105AC8000707070908080908080909090909090948
